{
  "_format": "hh-sol-artifact-1",
  "contractName": "Lottery",
  "sourceName": "contracts/Lottery.sol",
  "abi": [
    {
      "inputs": [
        {
          "internalType": "uint64",
          "name": "subscriptionId",
          "type": "uint64"
        }
      ],
      "stateMutability": "nonpayable",
      "type": "constructor"
    },
    {
      "inputs": [
        {
          "internalType": "address",
          "name": "have",
          "type": "address"
        },
        {
          "internalType": "address",
          "name": "want",
          "type": "address"
        }
      ],
      "name": "OnlyCoordinatorCanFulfill",
      "type": "error"
    },
    {
      "anonymous": false,
      "inputs": [
        {
          "indexed": true,
          "internalType": "address",
          "name": "previousOwner",
          "type": "address"
        },
        {
          "indexed": true,
          "internalType": "address",
          "name": "newOwner",
          "type": "address"
        }
      ],
      "name": "OwnershipTransferred",
      "type": "event"
    },
    {
      "anonymous": false,
      "inputs": [
        {
          "indexed": false,
          "internalType": "bytes32",
          "name": "winner",
          "type": "bytes32"
        }
      ],
      "name": "Winner",
      "type": "event"
    },
    {
      "inputs": [
        {
          "internalType": "bytes32[]",
          "name": "_players",
          "type": "bytes32[]"
        }
      ],
      "name": "addPlayers",
      "outputs": [],
      "stateMutability": "nonpayable",
      "type": "function"
    },
    {
      "inputs": [],
      "name": "getPlayers",
      "outputs": [
        {
          "internalType": "bytes32[]",
          "name": "",
          "type": "bytes32[]"
        }
      ],
      "stateMutability": "view",
      "type": "function"
    },
    {
      "inputs": [],
      "name": "owner",
      "outputs": [
        {
          "internalType": "address",
          "name": "",
          "type": "address"
        }
      ],
      "stateMutability": "view",
      "type": "function"
    },
    {
      "inputs": [
        {
          "internalType": "uint256",
          "name": "",
          "type": "uint256"
        }
      ],
      "name": "players",
      "outputs": [
        {
          "internalType": "bytes32",
          "name": "",
          "type": "bytes32"
        }
      ],
      "stateMutability": "view",
      "type": "function"
    },
    {
      "inputs": [
        {
          "internalType": "uint256",
          "name": "requestId",
          "type": "uint256"
        },
        {
          "internalType": "uint256[]",
          "name": "randomWords",
          "type": "uint256[]"
        }
      ],
      "name": "rawFulfillRandomWords",
      "outputs": [],
      "stateMutability": "nonpayable",
      "type": "function"
    },
    {
      "inputs": [],
      "name": "renounceOwnership",
      "outputs": [],
      "stateMutability": "nonpayable",
      "type": "function"
    },
    {
      "inputs": [
        {
          "internalType": "uint256",
          "name": "",
          "type": "uint256"
        }
      ],
      "name": "s_randomWords",
      "outputs": [
        {
          "internalType": "uint256",
          "name": "",
          "type": "uint256"
        }
      ],
      "stateMutability": "view",
      "type": "function"
    },
    {
      "inputs": [],
      "name": "s_requestId",
      "outputs": [
        {
          "internalType": "uint256",
          "name": "",
          "type": "uint256"
        }
      ],
      "stateMutability": "view",
      "type": "function"
    },
    {
      "inputs": [],
      "name": "selectWinner",
      "outputs": [],
      "stateMutability": "nonpayable",
      "type": "function"
    },
    {
      "inputs": [
        {
          "internalType": "address",
          "name": "newOwner",
          "type": "address"
        }
      ],
      "name": "transferOwnership",
      "outputs": [],
      "stateMutability": "nonpayable",
      "type": "function"
    },
    {
      "inputs": [],
      "name": "winner",
      "outputs": [
        {
          "internalType": "bytes32",
          "name": "",
          "type": "bytes32"
        }
      ],
      "stateMutability": "view",
      "type": "function"
    }
  ],
  "bytecode": "0x60a0604052736168499c0cffcacd319c818142124b7a15e857ab600560006101000a81548173ffffffffffffffffffffffffffffffffffffffff021916908373ffffffffffffffffffffffffffffffffffffffff1602179055507301be23585060835e02b77ef475b0cc51aa1e0709600660006101000a81548173ffffffffffffffffffffffffffffffffffffffff021916908373ffffffffffffffffffffffffffffffffffffffff1602179055507fd89b2bf150e3b9e13446986e571fb9cab24b13cea0a43ea20a6049a85cc807cc60001b600755620186a0600860006101000a81548163ffffffff021916908363ffffffff1602179055506003600860046101000a81548161ffff021916908361ffff1602179055506001600860066101000a81548163ffffffff021916908363ffffffff1602179055503480156200014657600080fd5b50604051620015723803806200157283398181016040528101906200016c9190620003c0565b600560009054906101000a900473ffffffffffffffffffffffffffffffffffffffff16620001af620001a3620002dd60201b60201c565b620002e560201b60201c565b8073ffffffffffffffffffffffffffffffffffffffff1660808173ffffffffffffffffffffffffffffffffffffffff1660601b8152505050600560009054906101000a900473ffffffffffffffffffffffffffffffffffffffff16600360006101000a81548173ffffffffffffffffffffffffffffffffffffffff021916908373ffffffffffffffffffffffffffffffffffffffff160217905550600660009054906101000a900473ffffffffffffffffffffffffffffffffffffffff16600460006101000a81548173ffffffffffffffffffffffffffffffffffffffff021916908373ffffffffffffffffffffffffffffffffffffffff16021790555080600460146101000a81548167ffffffffffffffff021916908367ffffffffffffffff1602179055505062000425565b600033905090565b60008060009054906101000a900473ffffffffffffffffffffffffffffffffffffffff169050816000806101000a81548173ffffffffffffffffffffffffffffffffffffffff021916908373ffffffffffffffffffffffffffffffffffffffff1602179055508173ffffffffffffffffffffffffffffffffffffffff168173ffffffffffffffffffffffffffffffffffffffff167f8be0079c531659141344cd1fd0a4f28419497f9722a3daafe3b4186f6b6457e060405160405180910390a35050565b600081519050620003ba816200040b565b92915050565b600060208284031215620003d957620003d862000406565b5b6000620003e984828501620003a9565b91505092915050565b600067ffffffffffffffff82169050919050565b600080fd5b6200041681620003f2565b81146200042257600080fd5b50565b60805160601c6111276200044b600039600081816101f0015261024401526111276000f3fe608060405234801561001057600080fd5b50600436106100a95760003560e01c80638da5cb5b116100715780638da5cb5b14610118578063dfbf53ae14610136578063e89e106a14610154578063f2fde38b14610172578063f6eaffc81461018e578063f71d96cb146101be576100a9565b80631fe543e3146100ae57806333a99e04146100ca5780633b1da3ac146100d4578063715018a6146100f05780638b5b9ccc146100fa575b600080fd5b6100c860048036038101906100c39190610b6f565b6101ee565b005b6100d26102ae565b005b6100ee60048036038101906100e99190610ac8565b610433565b005b6100f86104c5565b005b61010261054d565b60405161010f9190610d34565b60405180910390f35b6101206105a5565b60405161012d9190610cf0565b60405180910390f35b61013e6105ce565b60405161014b9190610d56565b60405180910390f35b61015c6105d4565b6040516101699190610e04565b60405180910390f35b61018c60048036038101906101879190610a9b565b6105da565b005b6101a860048036038101906101a39190610b15565b6106d2565b6040516101b59190610e04565b60405180910390f35b6101d860048036038101906101d39190610b15565b6106f6565b6040516101e59190610d56565b60405180910390f35b7f000000000000000000000000000000000000000000000000000000000000000073ffffffffffffffffffffffffffffffffffffffff163373ffffffffffffffffffffffffffffffffffffffff16146102a057337f00000000000000000000000000000000000000000000000000000000000000006040517f1cf993f4000000000000000000000000000000000000000000000000000000008152600401610297929190610d0b565b60405180910390fd5b6102aa828261071a565b5050565b6102b66107c8565b73ffffffffffffffffffffffffffffffffffffffff166102d46105a5565b73ffffffffffffffffffffffffffffffffffffffff161461032a576040517f08c379a000000000000000000000000000000000000000000000000000000000815260040161032190610de4565b60405180910390fd5b600360009054906101000a900473ffffffffffffffffffffffffffffffffffffffff1673ffffffffffffffffffffffffffffffffffffffff16635d3b1d30600754600460149054906101000a900467ffffffffffffffff16600860049054906101000a900461ffff16600860009054906101000a900463ffffffff16600860069054906101000a900463ffffffff166040518663ffffffff1660e01b81526004016103d9959493929190610d71565b602060405180830381600087803b1580156103f357600080fd5b505af1158015610407573d6000803e3d6000fd5b505050506040513d601f19601f8201168201806040525081019061042b9190610b42565b600a81905550565b61043b6107c8565b73ffffffffffffffffffffffffffffffffffffffff166104596105a5565b73ffffffffffffffffffffffffffffffffffffffff16146104af576040517f08c379a00000000000000000000000000000000000000000000000000000000081526004016104a690610de4565b60405180910390fd5b8181600191906104c0929190610894565b505050565b6104cd6107c8565b73ffffffffffffffffffffffffffffffffffffffff166104eb6105a5565b73ffffffffffffffffffffffffffffffffffffffff1614610541576040517f08c379a000000000000000000000000000000000000000000000000000000000815260040161053890610de4565b60405180910390fd5b61054b60006107d0565b565b6060600180548060200260200160405190810160405280929190818152602001828054801561059b57602002820191906000526020600020905b815481526020019060010190808311610587575b5050505050905090565b60008060009054906101000a900473ffffffffffffffffffffffffffffffffffffffff16905090565b60025481565b600a5481565b6105e26107c8565b73ffffffffffffffffffffffffffffffffffffffff166106006105a5565b73ffffffffffffffffffffffffffffffffffffffff1614610656576040517f08c379a000000000000000000000000000000000000000000000000000000000815260040161064d90610de4565b60405180910390fd5b600073ffffffffffffffffffffffffffffffffffffffff168173ffffffffffffffffffffffffffffffffffffffff1614156106c6576040517f08c379a00000000000000000000000000000000000000000000000000000000081526004016106bd90610dc4565b60405180910390fd5b6106cf816107d0565b50565b600981815481106106e257600080fd5b906000526020600020016000915090505481565b6001818154811061070657600080fd5b906000526020600020016000915090505481565b80600990805190602001906107309291906108e1565b506000600180549050600960008154811061074e5761074d610fc3565b5b90600052602060002001546107639190610f63565b90506001818154811061077957610778610fc3565b5b90600052602060002001546002819055507fcb78ebd952df333180e6c87766d53017bd77596834a9a1900a94f3cdf8b9a1cb6002546040516107bb9190610d56565b60405180910390a1505050565b600033905090565b60008060009054906101000a900473ffffffffffffffffffffffffffffffffffffffff169050816000806101000a81548173ffffffffffffffffffffffffffffffffffffffff021916908373ffffffffffffffffffffffffffffffffffffffff1602179055508173ffffffffffffffffffffffffffffffffffffffff168173ffffffffffffffffffffffffffffffffffffffff167f8be0079c531659141344cd1fd0a4f28419497f9722a3daafe3b4186f6b6457e060405160405180910390a35050565b8280548282559060005260206000209081019282156108d0579160200282015b828111156108cf5782358255916020019190600101906108b4565b5b5090506108dd919061092e565b5090565b82805482825590600052602060002090810192821561091d579160200282015b8281111561091c578251825591602001919060010190610901565b5b50905061092a919061094b565b5090565b5b8082111561094757600081600090555060010161092f565b5090565b5b8082111561096457600081600090555060010161094c565b5090565b600061097b61097684610e44565b610e1f565b9050808382526020820190508285602086028201111561099e5761099d61102b565b5b60005b858110156109ce57816109b48882610a71565b8452602084019350602083019250506001810190506109a1565b5050509392505050565b6000813590506109e7816110c3565b92915050565b60008083601f840112610a0357610a02611026565b5b8235905067ffffffffffffffff811115610a2057610a1f611021565b5b602083019150836020820283011115610a3c57610a3b61102b565b5b9250929050565b600082601f830112610a5857610a57611026565b5b8135610a68848260208601610968565b91505092915050565b600081359050610a80816110da565b92915050565b600081519050610a95816110da565b92915050565b600060208284031215610ab157610ab0611035565b5b6000610abf848285016109d8565b91505092915050565b60008060208385031215610adf57610ade611035565b5b600083013567ffffffffffffffff811115610afd57610afc611030565b5b610b09858286016109ed565b92509250509250929050565b600060208284031215610b2b57610b2a611035565b5b6000610b3984828501610a71565b91505092915050565b600060208284031215610b5857610b57611035565b5b6000610b6684828501610a86565b91505092915050565b60008060408385031215610b8657610b85611035565b5b6000610b9485828601610a71565b925050602083013567ffffffffffffffff811115610bb557610bb4611030565b5b610bc185828601610a43565b9150509250929050565b6000610bd78383610c50565b60208301905092915050565b610bec81610eba565b82525050565b6000610bfd82610e80565b610c078185610e98565b9350610c1283610e70565b8060005b83811015610c43578151610c2a8882610bcb565b9750610c3583610e8b565b925050600181019050610c16565b5085935050505092915050565b610c5981610ecc565b82525050565b610c6881610ecc565b82525050565b6000610c7b602683610ea9565b9150610c868261104b565b604082019050919050565b6000610c9e602083610ea9565b9150610ca98261109a565b602082019050919050565b610cbd81610ed6565b82525050565b610ccc81610f04565b82525050565b610cdb81610f0e565b82525050565b610cea81610f1e565b82525050565b6000602082019050610d056000830184610be3565b92915050565b6000604082019050610d206000830185610be3565b610d2d6020830184610be3565b9392505050565b60006020820190508181036000830152610d4e8184610bf2565b905092915050565b6000602082019050610d6b6000830184610c5f565b92915050565b600060a082019050610d866000830188610c5f565b610d936020830187610ce1565b610da06040830186610cb4565b610dad6060830185610cd2565b610dba6080830184610cd2565b9695505050505050565b60006020820190508181036000830152610ddd81610c6e565b9050919050565b60006020820190508181036000830152610dfd81610c91565b9050919050565b6000602082019050610e196000830184610cc3565b92915050565b6000610e29610e3a565b9050610e358282610f32565b919050565b6000604051905090565b600067ffffffffffffffff821115610e5f57610e5e610ff2565b5b602082029050602081019050919050565b6000819050602082019050919050565b600081519050919050565b6000602082019050919050565b600082825260208201905092915050565b600082825260208201905092915050565b6000610ec582610ee4565b9050919050565b6000819050919050565b600061ffff82169050919050565b600073ffffffffffffffffffffffffffffffffffffffff82169050919050565b6000819050919050565b600063ffffffff82169050919050565b600067ffffffffffffffff82169050919050565b610f3b8261103a565b810181811067ffffffffffffffff82111715610f5a57610f59610ff2565b5b80604052505050565b6000610f6e82610f04565b9150610f7983610f04565b925082610f8957610f88610f94565b5b828206905092915050565b7f4e487b7100000000000000000000000000000000000000000000000000000000600052601260045260246000fd5b7f4e487b7100000000000000000000000000000000000000000000000000000000600052603260045260246000fd5b7f4e487b7100000000000000000000000000000000000000000000000000000000600052604160045260246000fd5b600080fd5b600080fd5b600080fd5b600080fd5b600080fd5b6000601f19601f8301169050919050565b7f4f776e61626c653a206e6577206f776e657220697320746865207a65726f206160008201527f6464726573730000000000000000000000000000000000000000000000000000602082015250565b7f4f776e61626c653a2063616c6c6572206973206e6f7420746865206f776e6572600082015250565b6110cc81610eba565b81146110d757600080fd5b50565b6110e381610f04565b81146110ee57600080fd5b5056fea2646970667358221220af3fb618318c9e87fed4f5726c054c2e71a7ef6858f2b15e9d57bf2547eecf4a64736f6c63430008070033",
  "linkReferences": {},
  "deployedLinkReferences": {}
}