{
  "_format": "hh-sol-artifact-1",
  "contractName": "Lottery",
  "sourceName": "contracts/Lottery.sol",
  "abi": [
    {
      "inputs": [],
      "stateMutability": "nonpayable",
      "type": "constructor"
    },
    {
      "inputs": [
        {
          "internalType": "address",
          "name": "have",
          "type": "address"
        },
        {
          "internalType": "address",
          "name": "want",
          "type": "address"
        }
      ],
      "name": "OnlyCoordinatorCanFulfill",
      "type": "error"
    },
    {
      "anonymous": false,
      "inputs": [
        {
          "indexed": true,
          "internalType": "address",
          "name": "previousOwner",
          "type": "address"
        },
        {
          "indexed": true,
          "internalType": "address",
          "name": "newOwner",
          "type": "address"
        }
      ],
      "name": "OwnershipTransferred",
      "type": "event"
    },
    {
      "anonymous": false,
      "inputs": [
        {
          "indexed": false,
          "internalType": "string",
          "name": "",
          "type": "string"
        }
      ],
      "name": "RandomWords",
      "type": "event"
    },
    {
      "anonymous": false,
      "inputs": [
        {
          "indexed": false,
          "internalType": "bytes32",
          "name": "winner1",
          "type": "bytes32"
        },
        {
          "indexed": false,
          "internalType": "bytes32",
          "name": "winner2",
          "type": "bytes32"
        },
        {
          "indexed": false,
          "internalType": "bytes32",
          "name": "winner3",
          "type": "bytes32"
        }
      ],
      "name": "Winner",
      "type": "event"
    },
    {
      "inputs": [
        {
          "internalType": "address",
          "name": "consumerAddress",
          "type": "address"
        }
      ],
      "name": "addConsumer",
      "outputs": [],
      "stateMutability": "nonpayable",
      "type": "function"
    },
    {
      "inputs": [
        {
          "internalType": "bytes32[]",
          "name": "_players",
          "type": "bytes32[]"
        }
      ],
      "name": "addPlayers",
      "outputs": [],
      "stateMutability": "nonpayable",
      "type": "function"
    },
    {
      "inputs": [
        {
          "internalType": "address",
          "name": "receivingWallet",
          "type": "address"
        }
      ],
      "name": "cancelSubscription",
      "outputs": [],
      "stateMutability": "nonpayable",
      "type": "function"
    },
    {
      "inputs": [],
      "name": "getPlayers",
      "outputs": [
        {
          "internalType": "bytes32[]",
          "name": "",
          "type": "bytes32[]"
        }
      ],
      "stateMutability": "view",
      "type": "function"
    },
    {
      "inputs": [],
      "name": "owner",
      "outputs": [
        {
          "internalType": "address",
          "name": "",
          "type": "address"
        }
      ],
      "stateMutability": "view",
      "type": "function"
    },
    {
      "inputs": [
        {
          "internalType": "uint256",
          "name": "",
          "type": "uint256"
        }
      ],
      "name": "players",
      "outputs": [
        {
          "internalType": "bytes32",
          "name": "",
          "type": "bytes32"
        }
      ],
      "stateMutability": "view",
      "type": "function"
    },
    {
      "inputs": [
        {
          "internalType": "uint256",
          "name": "requestId",
          "type": "uint256"
        },
        {
          "internalType": "uint256[]",
          "name": "randomWords",
          "type": "uint256[]"
        }
      ],
      "name": "rawFulfillRandomWords",
      "outputs": [],
      "stateMutability": "nonpayable",
      "type": "function"
    },
    {
      "inputs": [
        {
          "internalType": "address",
          "name": "consumerAddress",
          "type": "address"
        }
      ],
      "name": "removeConsumer",
      "outputs": [],
      "stateMutability": "nonpayable",
      "type": "function"
    },
    {
      "inputs": [],
      "name": "renounceOwnership",
      "outputs": [],
      "stateMutability": "nonpayable",
      "type": "function"
    },
    {
      "inputs": [
        {
          "internalType": "uint256",
          "name": "",
          "type": "uint256"
        }
      ],
      "name": "s_randomWords",
      "outputs": [
        {
          "internalType": "uint256",
          "name": "",
          "type": "uint256"
        }
      ],
      "stateMutability": "view",
      "type": "function"
    },
    {
      "inputs": [],
      "name": "s_requestId",
      "outputs": [
        {
          "internalType": "uint256",
          "name": "",
          "type": "uint256"
        }
      ],
      "stateMutability": "view",
      "type": "function"
    },
    {
      "inputs": [],
      "name": "selectWinner",
      "outputs": [],
      "stateMutability": "nonpayable",
      "type": "function"
    },
    {
      "inputs": [],
      "name": "setWinners",
      "outputs": [],
      "stateMutability": "nonpayable",
      "type": "function"
    },
    {
      "inputs": [
        {
          "internalType": "uint256",
          "name": "amount",
          "type": "uint256"
        }
      ],
      "name": "topUpSubscription",
      "outputs": [],
      "stateMutability": "nonpayable",
      "type": "function"
    },
    {
      "inputs": [
        {
          "internalType": "address",
          "name": "newOwner",
          "type": "address"
        }
      ],
      "name": "transferOwnership",
      "outputs": [],
      "stateMutability": "nonpayable",
      "type": "function"
    },
    {
      "inputs": [],
      "name": "winner1",
      "outputs": [
        {
          "internalType": "bytes32",
          "name": "",
          "type": "bytes32"
        }
      ],
      "stateMutability": "view",
      "type": "function"
    },
    {
      "inputs": [],
      "name": "winner2",
      "outputs": [
        {
          "internalType": "bytes32",
          "name": "",
          "type": "bytes32"
        }
      ],
      "stateMutability": "view",
      "type": "function"
    },
    {
      "inputs": [],
      "name": "winner3",
      "outputs": [
        {
          "internalType": "bytes32",
          "name": "",
          "type": "bytes32"
        }
      ],
      "stateMutability": "view",
      "type": "function"
    },
    {
      "inputs": [
        {
          "internalType": "uint256",
          "name": "amount",
          "type": "uint256"
        },
        {
          "internalType": "address",
          "name": "to",
          "type": "address"
        }
      ],
      "name": "withdraw",
      "outputs": [],
      "stateMutability": "nonpayable",
      "type": "function"
    }
  ],
  "bytecode": "0x60a0604052732ed832ba664535e5886b75d64c46eb9a228c2610600760006101000a81548173ffffffffffffffffffffffffffffffffffffffff021916908373ffffffffffffffffffffffffffffffffffffffff160217905550730b9d5d9136855f6fec3c0993fee6e9ce8a297846600860006101000a81548173ffffffffffffffffffffffffffffffffffffffff021916908373ffffffffffffffffffffffffffffffffffffffff1602179055507f354d2f95da55398f44b7cff77da56283d9c6c829a4bdf1bbcaf2ad6a4d081f6160001b600955620186a0600a60006101000a81548163ffffffff021916908363ffffffff1602179055506003600a60046101000a81548161ffff021916908361ffff1602179055506003600a60066101000a81548163ffffffff021916908363ffffffff1602179055503480156200014657600080fd5b50600760009054906101000a900473ffffffffffffffffffffffffffffffffffffffff166200018a6200017e6200029e60201b60201c565b620002a660201b60201c565b8073ffffffffffffffffffffffffffffffffffffffff1660808173ffffffffffffffffffffffffffffffffffffffff1660601b8152505050600760009054906101000a900473ffffffffffffffffffffffffffffffffffffffff16600560006101000a81548173ffffffffffffffffffffffffffffffffffffffff021916908373ffffffffffffffffffffffffffffffffffffffff160217905550600860009054906101000a900473ffffffffffffffffffffffffffffffffffffffff16600660006101000a81548173ffffffffffffffffffffffffffffffffffffffff021916908373ffffffffffffffffffffffffffffffffffffffff160217905550620002986200036a60201b60201c565b6200083e565b600033905090565b60008060009054906101000a900473ffffffffffffffffffffffffffffffffffffffff169050816000806101000a81548173ffffffffffffffffffffffffffffffffffffffff021916908373ffffffffffffffffffffffffffffffffffffffff1602179055508173ffffffffffffffffffffffffffffffffffffffff168173ffffffffffffffffffffffffffffffffffffffff167f8be0079c531659141344cd1fd0a4f28419497f9722a3daafe3b4186f6b6457e060405160405180910390a35050565b6200037a6200029e60201b60201c565b73ffffffffffffffffffffffffffffffffffffffff16620003a06200063560201b60201c565b73ffffffffffffffffffffffffffffffffffffffff1614620003f9576040517f08c379a0000000000000000000000000000000000000000000000000000000008152600401620003f090620006f0565b60405180910390fd5b6000600167ffffffffffffffff811115620004195762000418620007c7565b5b604051908082528060200260200182016040528015620004485781602001602082028036833780820191505090505b509050308160008151811062000463576200046262000798565b5b602002602001019073ffffffffffffffffffffffffffffffffffffffff16908173ffffffffffffffffffffffffffffffffffffffff1681525050600560009054906101000a900473ffffffffffffffffffffffffffffffffffffffff1673ffffffffffffffffffffffffffffffffffffffff1663a21a23e46040518163ffffffff1660e01b8152600401602060405180830381600087803b1580156200050857600080fd5b505af11580156200051d573d6000803e3d6000fd5b505050506040513d601f19601f8201168201806040525081019062000543919062000675565b600660146101000a81548167ffffffffffffffff021916908367ffffffffffffffff160217905550600560009054906101000a900473ffffffffffffffffffffffffffffffffffffffff1673ffffffffffffffffffffffffffffffffffffffff16637341c10c600660149054906101000a900467ffffffffffffffff1683600081518110620005d757620005d662000798565b5b60200260200101516040518363ffffffff1660e01b8152600401620005fe92919062000712565b600060405180830381600087803b1580156200061957600080fd5b505af11580156200062e573d6000803e3d6000fd5b5050505050565b60008060009054906101000a900473ffffffffffffffffffffffffffffffffffffffff16905090565b6000815190506200066f8162000824565b92915050565b6000602082840312156200068e576200068d620007f6565b5b60006200069e848285016200065e565b91505092915050565b620006b28162000750565b82525050565b6000620006c76020836200073f565b9150620006d482620007fb565b602082019050919050565b620006ea8162000784565b82525050565b600060208201905081810360008301526200070b81620006b8565b9050919050565b6000604082019050620007296000830185620006df565b620007386020830184620006a7565b9392505050565b600082825260208201905092915050565b60006200075d8262000764565b9050919050565b600073ffffffffffffffffffffffffffffffffffffffff82169050919050565b600067ffffffffffffffff82169050919050565b7f4e487b7100000000000000000000000000000000000000000000000000000000600052603260045260246000fd5b7f4e487b7100000000000000000000000000000000000000000000000000000000600052604160045260246000fd5b600080fd5b7f4f776e61626c653a2063616c6c6572206973206e6f7420746865206f776e6572600082015250565b6200082f8162000784565b81146200083b57600080fd5b50565b60805160601c611e3862000864600039600081816106b7015261070b0152611e386000f3fe608060405234801561001057600080fd5b50600436106101205760003560e01c806386850e93116100ad578063e89e106a11610071578063e89e106a1461027f578063f2fde38b1461029d578063f6eaffc8146102b9578063f71d96cb146102e9578063f81b5c5b1461031957610120565b806386850e93146102015780638b5b9ccc1461021d5780638da5cb5b1461023b57806393d81d5814610259578063b7c593611461027557610120565b80631fe543e3116100f45780631fe543e31461019757806333a99e04146101b35780633b1da3ac146101bd5780633bc25ed6146101d9578063715018a6146101f757610120565b8062f714ce1461012557806301a3694e146101415780630e27e3df1461015f578063112940f91461017b575b600080fd5b61013f600480360381019061013a919061158e565b610337565b005b610149610467565b6040516101569190611878565b60405180910390f35b6101796004803603810190610174919061148d565b61046d565b005b6101956004803603810190610190919061148d565b610591565b005b6101b160048036038101906101ac91906115ce565b6106b5565b005b6101bb610775565b005b6101d760048036038101906101d291906114ba565b610912565b005b6101e16109a4565b6040516101ee9190611878565b60405180910390f35b6101ff6109aa565b005b61021b60048036038101906102169190611534565b610a32565b005b610225610bba565b6040516102329190611856565b60405180910390f35b610243610c12565b60405161025091906117ab565b60405180910390f35b610273600480360381019061026e919061148d565b610c3b565b005b61027d610d89565b005b610287611009565b604051610294919061197d565b60405180910390f35b6102b760048036038101906102b2919061148d565b61100f565b005b6102d360048036038101906102ce9190611534565b611107565b6040516102e0919061197d565b60405180910390f35b61030360048036038101906102fe9190611534565b61112b565b6040516103109190611878565b60405180910390f35b61032161114f565b60405161032e9190611878565b60405180910390f35b61033f611155565b73ffffffffffffffffffffffffffffffffffffffff1661035d610c12565b73ffffffffffffffffffffffffffffffffffffffff16146103b3576040517f08c379a00000000000000000000000000000000000000000000000000000000081526004016103aa9061195d565b60405180910390fd5b600660009054906101000a900473ffffffffffffffffffffffffffffffffffffffff1673ffffffffffffffffffffffffffffffffffffffff1663a9059cbb82846040518363ffffffff1660e01b81526004016104109291906117ef565b602060405180830381600087803b15801561042a57600080fd5b505af115801561043e573d6000803e3d6000fd5b505050506040513d601f19601f820116820180604052508101906104629190611507565b505050565b60035481565b610475611155565b73ffffffffffffffffffffffffffffffffffffffff16610493610c12565b73ffffffffffffffffffffffffffffffffffffffff16146104e9576040517f08c379a00000000000000000000000000000000000000000000000000000000081526004016104e09061195d565b60405180910390fd5b600560009054906101000a900473ffffffffffffffffffffffffffffffffffffffff1673ffffffffffffffffffffffffffffffffffffffff16639f87fad7600660149054906101000a900467ffffffffffffffff16836040518363ffffffff1660e01b815260040161055c9291906119b3565b600060405180830381600087803b15801561057657600080fd5b505af115801561058a573d6000803e3d6000fd5b5050505050565b610599611155565b73ffffffffffffffffffffffffffffffffffffffff166105b7610c12565b73ffffffffffffffffffffffffffffffffffffffff161461060d576040517f08c379a00000000000000000000000000000000000000000000000000000000081526004016106049061195d565b60405180910390fd5b600560009054906101000a900473ffffffffffffffffffffffffffffffffffffffff1673ffffffffffffffffffffffffffffffffffffffff16637341c10c600660149054906101000a900467ffffffffffffffff16836040518363ffffffff1660e01b81526004016106809291906119b3565b600060405180830381600087803b15801561069a57600080fd5b505af11580156106ae573d6000803e3d6000fd5b5050505050565b7f000000000000000000000000000000000000000000000000000000000000000073ffffffffffffffffffffffffffffffffffffffff163373ffffffffffffffffffffffffffffffffffffffff161461076757337f00000000000000000000000000000000000000000000000000000000000000006040517f1cf993f400000000000000000000000000000000000000000000000000000000815260040161075e9291906117c6565b60405180910390fd5b610771828261115d565b5050565b61077d611155565b73ffffffffffffffffffffffffffffffffffffffff1661079b610c12565b73ffffffffffffffffffffffffffffffffffffffff16146107f1576040517f08c379a00000000000000000000000000000000000000000000000000000000081526004016107e89061195d565b60405180910390fd5b600060028190555060006003819055506000600481905550600560009054906101000a900473ffffffffffffffffffffffffffffffffffffffff1673ffffffffffffffffffffffffffffffffffffffff16635d3b1d30600954600660149054906101000a900467ffffffffffffffff16600a60049054906101000a900461ffff16600a60009054906101000a900463ffffffff16600a60069054906101000a900463ffffffff166040518663ffffffff1660e01b81526004016108b89594939291906118ca565b602060405180830381600087803b1580156108d257600080fd5b505af11580156108e6573d6000803e3d6000fd5b505050506040513d601f19601f8201168201806040525081019061090a9190611561565b600c81905550565b61091a611155565b73ffffffffffffffffffffffffffffffffffffffff16610938610c12565b73ffffffffffffffffffffffffffffffffffffffff161461098e576040517f08c379a00000000000000000000000000000000000000000000000000000000081526004016109859061195d565b60405180910390fd5b81816001919061099f929190611271565b505050565b60025481565b6109b2611155565b73ffffffffffffffffffffffffffffffffffffffff166109d0610c12565b73ffffffffffffffffffffffffffffffffffffffff1614610a26576040517f08c379a0000000000000000000000000000000000000000000000000000000008152600401610a1d9061195d565b60405180910390fd5b610a3060006111ad565b565b610a3a611155565b73ffffffffffffffffffffffffffffffffffffffff16610a58610c12565b73ffffffffffffffffffffffffffffffffffffffff1614610aae576040517f08c379a0000000000000000000000000000000000000000000000000000000008152600401610aa59061195d565b60405180910390fd5b600660009054906101000a900473ffffffffffffffffffffffffffffffffffffffff1673ffffffffffffffffffffffffffffffffffffffff16634000aea0600560009054906101000a900473ffffffffffffffffffffffffffffffffffffffff1683600660149054906101000a900467ffffffffffffffff16604051602001610b379190611998565b6040516020818303038152906040526040518463ffffffff1660e01b8152600401610b6493929190611818565b602060405180830381600087803b158015610b7e57600080fd5b505af1158015610b92573d6000803e3d6000fd5b505050506040513d601f19601f82011682018060405250810190610bb69190611507565b5050565b60606001805480602002602001604051908101604052809291908181526020018280548015610c0857602002820191906000526020600020905b815481526020019060010190808311610bf4575b5050505050905090565b60008060009054906101000a900473ffffffffffffffffffffffffffffffffffffffff16905090565b610c43611155565b73ffffffffffffffffffffffffffffffffffffffff16610c61610c12565b73ffffffffffffffffffffffffffffffffffffffff1614610cb7576040517f08c379a0000000000000000000000000000000000000000000000000000000008152600401610cae9061195d565b60405180910390fd5b600560009054906101000a900473ffffffffffffffffffffffffffffffffffffffff1673ffffffffffffffffffffffffffffffffffffffff1663d7ae1d30600660149054906101000a900467ffffffffffffffff16836040518363ffffffff1660e01b8152600401610d2a9291906119b3565b600060405180830381600087803b158015610d4457600080fd5b505af1158015610d58573d6000803e3d6000fd5b505050506000600660146101000a81548167ffffffffffffffff021916908367ffffffffffffffff16021790555050565b610d91611155565b73ffffffffffffffffffffffffffffffffffffffff16610daf610c12565b73ffffffffffffffffffffffffffffffffffffffff1614610e05576040517f08c379a0000000000000000000000000000000000000000000000000000000008152600401610dfc9061195d565b60405180910390fd5b6000600180549050600b600081548110610e2257610e21611c94565b5b9060005260206000200154610e379190611c05565b905060018181548110610e4d57610e4c611c94565b5b90600052602060002001546002819055506000600180549050600b600181548110610e7b57610e7a611c94565b5b9060005260206000200154610e909190611c05565b905081811415610ec157600180549050811415610eb05760009050610ec0565b600181610ebd9190611a93565b90505b5b60018181548110610ed557610ed4611c94565b5b90600052602060002001546003819055506000600180549050600b600281548110610f0357610f02611c94565b5b9060005260206000200154610f189190611c05565b905082811480610f2757508181145b15610f9e57600182610f399190611ae9565b831480610f515750600182610f4e9190611a93565b83145b15610f7757600281610f639190611a93565b90506001805490508110610f7657600090505b5b600180549050811415610f8d5760009050610f9d565b600181610f9a9190611a93565b90505b5b60018181548110610fb257610fb1611c94565b5b90600052602060002001546004819055507fc458f0a46e195d7a71e0fc6cdad58e0dbf8cc9acd20ce0a4182abbcb17b1a03b600254600354600454604051610ffc93929190611893565b60405180910390a1505050565b600c5481565b611017611155565b73ffffffffffffffffffffffffffffffffffffffff16611035610c12565b73ffffffffffffffffffffffffffffffffffffffff161461108b576040517f08c379a00000000000000000000000000000000000000000000000000000000081526004016110829061195d565b60405180910390fd5b600073ffffffffffffffffffffffffffffffffffffffff168173ffffffffffffffffffffffffffffffffffffffff1614156110fb576040517f08c379a00000000000000000000000000000000000000000000000000000000081526004016110f29061191d565b60405180910390fd5b611104816111ad565b50565b600b818154811061111757600080fd5b906000526020600020016000915090505481565b6001818154811061113b57600080fd5b906000526020600020016000915090505481565b60045481565b600033905090565b80600b90805190602001906111739291906112be565b507f94de2ff682819969468ba0a79b06b01178ae993361a4f9b58eda41aa5eebe3726040516111a19061193d565b60405180910390a15050565b60008060009054906101000a900473ffffffffffffffffffffffffffffffffffffffff169050816000806101000a81548173ffffffffffffffffffffffffffffffffffffffff021916908373ffffffffffffffffffffffffffffffffffffffff1602179055508173ffffffffffffffffffffffffffffffffffffffff168173ffffffffffffffffffffffffffffffffffffffff167f8be0079c531659141344cd1fd0a4f28419497f9722a3daafe3b4186f6b6457e060405160405180910390a35050565b8280548282559060005260206000209081019282156112ad579160200282015b828111156112ac578235825591602001919060010190611291565b5b5090506112ba919061130b565b5090565b8280548282559060005260206000209081019282156112fa579160200282015b828111156112f95782518255916020019190600101906112de565b5b5090506113079190611328565b5090565b5b8082111561132457600081600090555060010161130c565b5090565b5b80821115611341576000816000905550600101611329565b5090565b600061135861135384611a01565b6119dc565b9050808382526020820190508285602086028201111561137b5761137a611cfc565b5b60005b858110156113ab57816113918882611463565b84526020840193506020830192505060018101905061137e565b5050509392505050565b6000813590506113c481611dbd565b92915050565b60008083601f8401126113e0576113df611cf7565b5b8235905067ffffffffffffffff8111156113fd576113fc611cf2565b5b60208301915083602082028301111561141957611418611cfc565b5b9250929050565b600082601f83011261143557611434611cf7565b5b8135611445848260208601611345565b91505092915050565b60008151905061145d81611dd4565b92915050565b60008135905061147281611deb565b92915050565b60008151905061148781611deb565b92915050565b6000602082840312156114a3576114a2611d06565b5b60006114b1848285016113b5565b91505092915050565b600080602083850312156114d1576114d0611d06565b5b600083013567ffffffffffffffff8111156114ef576114ee611d01565b5b6114fb858286016113ca565b92509250509250929050565b60006020828403121561151d5761151c611d06565b5b600061152b8482850161144e565b91505092915050565b60006020828403121561154a57611549611d06565b5b600061155884828501611463565b91505092915050565b60006020828403121561157757611576611d06565b5b600061158584828501611478565b91505092915050565b600080604083850312156115a5576115a4611d06565b5b60006115b385828601611463565b92505060206115c4858286016113b5565b9150509250929050565b600080604083850312156115e5576115e4611d06565b5b60006115f385828601611463565b925050602083013567ffffffffffffffff81111561161457611613611d01565b5b61162085828601611420565b9150509250929050565b600061163683836116af565b60208301905092915050565b61164b81611b1d565b82525050565b600061165c82611a3d565b6116668185611a60565b935061167183611a2d565b8060005b838110156116a2578151611689888261162a565b975061169483611a53565b925050600181019050611675565b5085935050505092915050565b6116b881611b3b565b82525050565b6116c781611b3b565b82525050565b60006116d882611a48565b6116e28185611a71565b93506116f2818560208601611ba1565b6116fb81611d0b565b840191505092915050565b6000611713602683611a82565b915061171e82611d1c565b604082019050919050565b6000611736600983611a82565b915061174182611d6b565b602082019050919050565b6000611759602083611a82565b915061176482611d94565b602082019050919050565b61177881611b45565b82525050565b61178781611b73565b82525050565b61179681611b7d565b82525050565b6117a581611b8d565b82525050565b60006020820190506117c06000830184611642565b92915050565b60006040820190506117db6000830185611642565b6117e86020830184611642565b9392505050565b60006040820190506118046000830185611642565b611811602083018461177e565b9392505050565b600060608201905061182d6000830186611642565b61183a602083018561177e565b818103604083015261184c81846116cd565b9050949350505050565b600060208201905081810360008301526118708184611651565b905092915050565b600060208201905061188d60008301846116be565b92915050565b60006060820190506118a860008301866116be565b6118b560208301856116be565b6118c260408301846116be565b949350505050565b600060a0820190506118df60008301886116be565b6118ec602083018761179c565b6118f9604083018661176f565b611906606083018561178d565b611913608083018461178d565b9695505050505050565b6000602082019050818103600083015261193681611706565b9050919050565b6000602082019050818103600083015261195681611729565b9050919050565b600060208201905081810360008301526119768161174c565b9050919050565b6000602082019050611992600083018461177e565b92915050565b60006020820190506119ad600083018461179c565b92915050565b60006040820190506119c8600083018561179c565b6119d56020830184611642565b9392505050565b60006119e66119f7565b90506119f28282611bd4565b919050565b6000604051905090565b600067ffffffffffffffff821115611a1c57611a1b611cc3565b5b602082029050602081019050919050565b6000819050602082019050919050565b600081519050919050565b600081519050919050565b6000602082019050919050565b600082825260208201905092915050565b600082825260208201905092915050565b600082825260208201905092915050565b6000611a9e82611b73565b9150611aa983611b73565b9250827fffffffffffffffffffffffffffffffffffffffffffffffffffffffffffffffff03821115611ade57611add611c36565b5b828201905092915050565b6000611af482611b73565b9150611aff83611b73565b925082821015611b1257611b11611c36565b5b828203905092915050565b6000611b2882611b53565b9050919050565b60008115159050919050565b6000819050919050565b600061ffff82169050919050565b600073ffffffffffffffffffffffffffffffffffffffff82169050919050565b6000819050919050565b600063ffffffff82169050919050565b600067ffffffffffffffff82169050919050565b60005b83811015611bbf578082015181840152602081019050611ba4565b83811115611bce576000848401525b50505050565b611bdd82611d0b565b810181811067ffffffffffffffff82111715611bfc57611bfb611cc3565b5b80604052505050565b6000611c1082611b73565b9150611c1b83611b73565b925082611c2b57611c2a611c65565b5b828206905092915050565b7f4e487b7100000000000000000000000000000000000000000000000000000000600052601160045260246000fd5b7f4e487b7100000000000000000000000000000000000000000000000000000000600052601260045260246000fd5b7f4e487b7100000000000000000000000000000000000000000000000000000000600052603260045260246000fd5b7f4e487b7100000000000000000000000000000000000000000000000000000000600052604160045260246000fd5b600080fd5b600080fd5b600080fd5b600080fd5b600080fd5b6000601f19601f8301169050919050565b7f4f776e61626c653a206e6577206f776e657220697320746865207a65726f206160008201527f6464726573730000000000000000000000000000000000000000000000000000602082015250565b7f636f6d706c657465640000000000000000000000000000000000000000000000600082015250565b7f4f776e61626c653a2063616c6c6572206973206e6f7420746865206f776e6572600082015250565b611dc681611b1d565b8114611dd157600080fd5b50565b611ddd81611b2f565b8114611de857600080fd5b50565b611df481611b73565b8114611dff57600080fd5b5056fea264697066735822122018e562873c97551ede2fd13682a9bd19bec4b1b905bb5f4e8075f6536bbf74b264736f6c63430008070033",
  "linkReferences": {},
  "deployedLinkReferences": {}
}