{
  "_format": "hh-sol-artifact-1",
  "contractName": "Lottery",
  "sourceName": "contracts/Lottery.sol",
  "abi": [
    {
      "inputs": [],
      "stateMutability": "nonpayable",
      "type": "constructor"
    },
    {
      "inputs": [
        {
          "internalType": "address",
          "name": "have",
          "type": "address"
        },
        {
          "internalType": "address",
          "name": "want",
          "type": "address"
        }
      ],
      "name": "OnlyCoordinatorCanFulfill",
      "type": "error"
    },
    {
      "anonymous": false,
      "inputs": [
        {
          "indexed": true,
          "internalType": "address",
          "name": "previousOwner",
          "type": "address"
        },
        {
          "indexed": true,
          "internalType": "address",
          "name": "newOwner",
          "type": "address"
        }
      ],
      "name": "OwnershipTransferred",
      "type": "event"
    },
    {
      "anonymous": false,
      "inputs": [
        {
          "indexed": false,
          "internalType": "string",
          "name": "",
          "type": "string"
        }
      ],
      "name": "RandomWords",
      "type": "event"
    },
    {
      "anonymous": false,
      "inputs": [
        {
          "indexed": false,
          "internalType": "bytes32",
          "name": "winner1",
          "type": "bytes32"
        },
        {
          "indexed": false,
          "internalType": "bytes32",
          "name": "winner2",
          "type": "bytes32"
        },
        {
          "indexed": false,
          "internalType": "bytes32",
          "name": "winner3",
          "type": "bytes32"
        }
      ],
      "name": "Winner",
      "type": "event"
    },
    {
      "inputs": [
        {
          "internalType": "address",
          "name": "consumerAddress",
          "type": "address"
        }
      ],
      "name": "addConsumer",
      "outputs": [],
      "stateMutability": "nonpayable",
      "type": "function"
    },
    {
      "inputs": [
        {
          "internalType": "bytes32[]",
          "name": "_players",
          "type": "bytes32[]"
        }
      ],
      "name": "addPlayers",
      "outputs": [],
      "stateMutability": "nonpayable",
      "type": "function"
    },
    {
      "inputs": [
        {
          "internalType": "address",
          "name": "receivingWallet",
          "type": "address"
        }
      ],
      "name": "cancelSubscription",
      "outputs": [],
      "stateMutability": "nonpayable",
      "type": "function"
    },
    {
      "inputs": [],
      "name": "getPlayers",
      "outputs": [
        {
          "internalType": "bytes32[]",
          "name": "",
          "type": "bytes32[]"
        }
      ],
      "stateMutability": "view",
      "type": "function"
    },
    {
      "inputs": [],
      "name": "owner",
      "outputs": [
        {
          "internalType": "address",
          "name": "",
          "type": "address"
        }
      ],
      "stateMutability": "view",
      "type": "function"
    },
    {
      "inputs": [
        {
          "internalType": "uint256",
          "name": "",
          "type": "uint256"
        }
      ],
      "name": "players",
      "outputs": [
        {
          "internalType": "bytes32",
          "name": "",
          "type": "bytes32"
        }
      ],
      "stateMutability": "view",
      "type": "function"
    },
    {
      "inputs": [
        {
          "internalType": "uint256",
          "name": "requestId",
          "type": "uint256"
        },
        {
          "internalType": "uint256[]",
          "name": "randomWords",
          "type": "uint256[]"
        }
      ],
      "name": "rawFulfillRandomWords",
      "outputs": [],
      "stateMutability": "nonpayable",
      "type": "function"
    },
    {
      "inputs": [
        {
          "internalType": "address",
          "name": "consumerAddress",
          "type": "address"
        }
      ],
      "name": "removeConsumer",
      "outputs": [],
      "stateMutability": "nonpayable",
      "type": "function"
    },
    {
      "inputs": [],
      "name": "renounceOwnership",
      "outputs": [],
      "stateMutability": "nonpayable",
      "type": "function"
    },
    {
      "inputs": [
        {
          "internalType": "uint256",
          "name": "",
          "type": "uint256"
        }
      ],
      "name": "s_randomWords",
      "outputs": [
        {
          "internalType": "uint256",
          "name": "",
          "type": "uint256"
        }
      ],
      "stateMutability": "view",
      "type": "function"
    },
    {
      "inputs": [],
      "name": "s_requestId",
      "outputs": [
        {
          "internalType": "uint256",
          "name": "",
          "type": "uint256"
        }
      ],
      "stateMutability": "view",
      "type": "function"
    },
    {
      "inputs": [],
      "name": "setWinners",
      "outputs": [],
      "stateMutability": "nonpayable",
      "type": "function"
    },
    {
      "inputs": [
        {
          "internalType": "uint256",
          "name": "amount",
          "type": "uint256"
        }
      ],
      "name": "topUpSubscription",
      "outputs": [],
      "stateMutability": "nonpayable",
      "type": "function"
    },
    {
      "inputs": [
        {
          "internalType": "address",
          "name": "newOwner",
          "type": "address"
        }
      ],
      "name": "transferOwnership",
      "outputs": [],
      "stateMutability": "nonpayable",
      "type": "function"
    },
    {
      "inputs": [],
      "name": "winner1",
      "outputs": [
        {
          "internalType": "bytes32",
          "name": "",
          "type": "bytes32"
        }
      ],
      "stateMutability": "view",
      "type": "function"
    },
    {
      "inputs": [],
      "name": "winner2",
      "outputs": [
        {
          "internalType": "bytes32",
          "name": "",
          "type": "bytes32"
        }
      ],
      "stateMutability": "view",
      "type": "function"
    },
    {
      "inputs": [],
      "name": "winner3",
      "outputs": [
        {
          "internalType": "bytes32",
          "name": "",
          "type": "bytes32"
        }
      ],
      "stateMutability": "view",
      "type": "function"
    },
    {
      "inputs": [
        {
          "internalType": "uint256",
          "name": "amount",
          "type": "uint256"
        },
        {
          "internalType": "address",
          "name": "to",
          "type": "address"
        }
      ],
      "name": "withdraw",
      "outputs": [],
      "stateMutability": "nonpayable",
      "type": "function"
    }
  ],
  "bytecode": "0x60a0604052732ed832ba664535e5886b75d64c46eb9a228c2610600760006101000a81548173ffffffffffffffffffffffffffffffffffffffff021916908373ffffffffffffffffffffffffffffffffffffffff160217905550730b9d5d9136855f6fec3c0993fee6e9ce8a297846600860006101000a81548173ffffffffffffffffffffffffffffffffffffffff021916908373ffffffffffffffffffffffffffffffffffffffff1602179055507f354d2f95da55398f44b7cff77da56283d9c6c829a4bdf1bbcaf2ad6a4d081f6160001b600955620186a0600a60006101000a81548163ffffffff021916908363ffffffff1602179055506003600a60046101000a81548161ffff021916908361ffff1602179055506003600a60066101000a81548163ffffffff021916908363ffffffff1602179055503480156200014657600080fd5b50600760009054906101000a900473ffffffffffffffffffffffffffffffffffffffff166200018a6200017e6200029e60201b60201c565b620002a660201b60201c565b8073ffffffffffffffffffffffffffffffffffffffff1660808173ffffffffffffffffffffffffffffffffffffffff1660601b8152505050600760009054906101000a900473ffffffffffffffffffffffffffffffffffffffff16600560006101000a81548173ffffffffffffffffffffffffffffffffffffffff021916908373ffffffffffffffffffffffffffffffffffffffff160217905550600860009054906101000a900473ffffffffffffffffffffffffffffffffffffffff16600660006101000a81548173ffffffffffffffffffffffffffffffffffffffff021916908373ffffffffffffffffffffffffffffffffffffffff160217905550620002986200036a60201b60201c565b6200083e565b600033905090565b60008060009054906101000a900473ffffffffffffffffffffffffffffffffffffffff169050816000806101000a81548173ffffffffffffffffffffffffffffffffffffffff021916908373ffffffffffffffffffffffffffffffffffffffff1602179055508173ffffffffffffffffffffffffffffffffffffffff168173ffffffffffffffffffffffffffffffffffffffff167f8be0079c531659141344cd1fd0a4f28419497f9722a3daafe3b4186f6b6457e060405160405180910390a35050565b6200037a6200029e60201b60201c565b73ffffffffffffffffffffffffffffffffffffffff16620003a06200063560201b60201c565b73ffffffffffffffffffffffffffffffffffffffff1614620003f9576040517f08c379a0000000000000000000000000000000000000000000000000000000008152600401620003f090620006f0565b60405180910390fd5b6000600167ffffffffffffffff811115620004195762000418620007c7565b5b604051908082528060200260200182016040528015620004485781602001602082028036833780820191505090505b509050308160008151811062000463576200046262000798565b5b602002602001019073ffffffffffffffffffffffffffffffffffffffff16908173ffffffffffffffffffffffffffffffffffffffff1681525050600560009054906101000a900473ffffffffffffffffffffffffffffffffffffffff1673ffffffffffffffffffffffffffffffffffffffff1663a21a23e46040518163ffffffff1660e01b8152600401602060405180830381600087803b1580156200050857600080fd5b505af11580156200051d573d6000803e3d6000fd5b505050506040513d601f19601f8201168201806040525081019062000543919062000675565b600660146101000a81548167ffffffffffffffff021916908367ffffffffffffffff160217905550600560009054906101000a900473ffffffffffffffffffffffffffffffffffffffff1673ffffffffffffffffffffffffffffffffffffffff16637341c10c600660149054906101000a900467ffffffffffffffff1683600081518110620005d757620005d662000798565b5b60200260200101516040518363ffffffff1660e01b8152600401620005fe92919062000712565b600060405180830381600087803b1580156200061957600080fd5b505af11580156200062e573d6000803e3d6000fd5b5050505050565b60008060009054906101000a900473ffffffffffffffffffffffffffffffffffffffff16905090565b6000815190506200066f8162000824565b92915050565b6000602082840312156200068e576200068d620007f6565b5b60006200069e848285016200065e565b91505092915050565b620006b28162000750565b82525050565b6000620006c76020836200073f565b9150620006d482620007fb565b602082019050919050565b620006ea8162000784565b82525050565b600060208201905081810360008301526200070b81620006b8565b9050919050565b6000604082019050620007296000830185620006df565b620007386020830184620006a7565b9392505050565b600082825260208201905092915050565b60006200075d8262000764565b9050919050565b600073ffffffffffffffffffffffffffffffffffffffff82169050919050565b600067ffffffffffffffff82169050919050565b7f4e487b7100000000000000000000000000000000000000000000000000000000600052603260045260246000fd5b7f4e487b7100000000000000000000000000000000000000000000000000000000600052604160045260246000fd5b600080fd5b7f4f776e61626c653a2063616c6c6572206973206e6f7420746865206f776e6572600082015250565b6200082f8162000784565b81146200083b57600080fd5b50565b60805160601c611e2b62000864600039600081816106a201526106f60152611e2b6000f3fe608060405234801561001057600080fd5b50600436106101155760003560e01c80638b5b9ccc116100a2578063e89e106a11610071578063e89e106a1461026a578063f2fde38b14610288578063f6eaffc8146102a4578063f71d96cb146102d4578063f81b5c5b1461030457610115565b80638b5b9ccc146102085780638da5cb5b1461022657806393d81d5814610244578063b7c593611461026057610115565b80631fe543e3116100e95780631fe543e31461018c5780633b1da3ac146101a85780633bc25ed6146101c4578063715018a6146101e257806386850e93146101ec57610115565b8062f714ce1461011a57806301a3694e146101365780630e27e3df14610154578063112940f914610170575b600080fd5b610134600480360381019061012f9190611581565b610322565b005b61013e610452565b60405161014b919061186b565b60405180910390f35b61016e60048036038101906101699190611480565b610458565b005b61018a60048036038101906101859190611480565b61057c565b005b6101a660048036038101906101a191906115c1565b6106a0565b005b6101c260048036038101906101bd91906114ad565b610760565b005b6101cc6107fa565b6040516101d9919061186b565b60405180910390f35b6101ea610800565b005b61020660048036038101906102019190611527565b610888565b005b610210610a10565b60405161021d9190611849565b60405180910390f35b61022e610a68565b60405161023b919061179e565b60405180910390f35b61025e60048036038101906102599190611480565b610a91565b005b610268610bdf565b005b610272610e5f565b60405161027f9190611970565b60405180910390f35b6102a2600480360381019061029d9190611480565b610e65565b005b6102be60048036038101906102b99190611527565b610f5d565b6040516102cb9190611970565b60405180910390f35b6102ee60048036038101906102e99190611527565b610f81565b6040516102fb919061186b565b60405180910390f35b61030c610fa5565b604051610319919061186b565b60405180910390f35b61032a610fab565b73ffffffffffffffffffffffffffffffffffffffff16610348610a68565b73ffffffffffffffffffffffffffffffffffffffff161461039e576040517f08c379a000000000000000000000000000000000000000000000000000000000815260040161039590611950565b60405180910390fd5b600660009054906101000a900473ffffffffffffffffffffffffffffffffffffffff1673ffffffffffffffffffffffffffffffffffffffff1663a9059cbb82846040518363ffffffff1660e01b81526004016103fb9291906117e2565b602060405180830381600087803b15801561041557600080fd5b505af1158015610429573d6000803e3d6000fd5b505050506040513d601f19601f8201168201806040525081019061044d91906114fa565b505050565b60035481565b610460610fab565b73ffffffffffffffffffffffffffffffffffffffff1661047e610a68565b73ffffffffffffffffffffffffffffffffffffffff16146104d4576040517f08c379a00000000000000000000000000000000000000000000000000000000081526004016104cb90611950565b60405180910390fd5b600560009054906101000a900473ffffffffffffffffffffffffffffffffffffffff1673ffffffffffffffffffffffffffffffffffffffff16639f87fad7600660149054906101000a900467ffffffffffffffff16836040518363ffffffff1660e01b81526004016105479291906119a6565b600060405180830381600087803b15801561056157600080fd5b505af1158015610575573d6000803e3d6000fd5b5050505050565b610584610fab565b73ffffffffffffffffffffffffffffffffffffffff166105a2610a68565b73ffffffffffffffffffffffffffffffffffffffff16146105f8576040517f08c379a00000000000000000000000000000000000000000000000000000000081526004016105ef90611950565b60405180910390fd5b600560009054906101000a900473ffffffffffffffffffffffffffffffffffffffff1673ffffffffffffffffffffffffffffffffffffffff16637341c10c600660149054906101000a900467ffffffffffffffff16836040518363ffffffff1660e01b815260040161066b9291906119a6565b600060405180830381600087803b15801561068557600080fd5b505af1158015610699573d6000803e3d6000fd5b5050505050565b7f000000000000000000000000000000000000000000000000000000000000000073ffffffffffffffffffffffffffffffffffffffff163373ffffffffffffffffffffffffffffffffffffffff161461075257337f00000000000000000000000000000000000000000000000000000000000000006040517f1cf993f40000000000000000000000000000000000000000000000000000000081526004016107499291906117b9565b60405180910390fd5b61075c8282610fb3565b5050565b610768610fab565b73ffffffffffffffffffffffffffffffffffffffff16610786610a68565b73ffffffffffffffffffffffffffffffffffffffff16146107dc576040517f08c379a00000000000000000000000000000000000000000000000000000000081526004016107d390611950565b60405180910390fd5b8181600191906107ed929190611264565b506107f6611003565b5050565b60025481565b610808610fab565b73ffffffffffffffffffffffffffffffffffffffff16610826610a68565b73ffffffffffffffffffffffffffffffffffffffff161461087c576040517f08c379a000000000000000000000000000000000000000000000000000000000815260040161087390611950565b60405180910390fd5b61088660006111a0565b565b610890610fab565b73ffffffffffffffffffffffffffffffffffffffff166108ae610a68565b73ffffffffffffffffffffffffffffffffffffffff1614610904576040517f08c379a00000000000000000000000000000000000000000000000000000000081526004016108fb90611950565b60405180910390fd5b600660009054906101000a900473ffffffffffffffffffffffffffffffffffffffff1673ffffffffffffffffffffffffffffffffffffffff16634000aea0600560009054906101000a900473ffffffffffffffffffffffffffffffffffffffff1683600660149054906101000a900467ffffffffffffffff1660405160200161098d919061198b565b6040516020818303038152906040526040518463ffffffff1660e01b81526004016109ba9392919061180b565b602060405180830381600087803b1580156109d457600080fd5b505af11580156109e8573d6000803e3d6000fd5b505050506040513d601f19601f82011682018060405250810190610a0c91906114fa565b5050565b60606001805480602002602001604051908101604052809291908181526020018280548015610a5e57602002820191906000526020600020905b815481526020019060010190808311610a4a575b5050505050905090565b60008060009054906101000a900473ffffffffffffffffffffffffffffffffffffffff16905090565b610a99610fab565b73ffffffffffffffffffffffffffffffffffffffff16610ab7610a68565b73ffffffffffffffffffffffffffffffffffffffff1614610b0d576040517f08c379a0000000000000000000000000000000000000000000000000000000008152600401610b0490611950565b60405180910390fd5b600560009054906101000a900473ffffffffffffffffffffffffffffffffffffffff1673ffffffffffffffffffffffffffffffffffffffff1663d7ae1d30600660149054906101000a900467ffffffffffffffff16836040518363ffffffff1660e01b8152600401610b809291906119a6565b600060405180830381600087803b158015610b9a57600080fd5b505af1158015610bae573d6000803e3d6000fd5b505050506000600660146101000a81548167ffffffffffffffff021916908367ffffffffffffffff16021790555050565b610be7610fab565b73ffffffffffffffffffffffffffffffffffffffff16610c05610a68565b73ffffffffffffffffffffffffffffffffffffffff1614610c5b576040517f08c379a0000000000000000000000000000000000000000000000000000000008152600401610c5290611950565b60405180910390fd5b6000600180549050600b600081548110610c7857610c77611c87565b5b9060005260206000200154610c8d9190611bf8565b905060018181548110610ca357610ca2611c87565b5b90600052602060002001546002819055506000600180549050600b600181548110610cd157610cd0611c87565b5b9060005260206000200154610ce69190611bf8565b905081811415610d1757600180549050811415610d065760009050610d16565b600181610d139190611a86565b90505b5b60018181548110610d2b57610d2a611c87565b5b90600052602060002001546003819055506000600180549050600b600281548110610d5957610d58611c87565b5b9060005260206000200154610d6e9190611bf8565b905082811480610d7d57508181145b15610df457600182610d8f9190611adc565b831480610da75750600182610da49190611a86565b83145b15610dcd57600281610db99190611a86565b90506001805490508110610dcc57600090505b5b600180549050811415610de35760009050610df3565b600181610df09190611a86565b90505b5b60018181548110610e0857610e07611c87565b5b90600052602060002001546004819055507fc458f0a46e195d7a71e0fc6cdad58e0dbf8cc9acd20ce0a4182abbcb17b1a03b600254600354600454604051610e5293929190611886565b60405180910390a1505050565b600c5481565b610e6d610fab565b73ffffffffffffffffffffffffffffffffffffffff16610e8b610a68565b73ffffffffffffffffffffffffffffffffffffffff1614610ee1576040517f08c379a0000000000000000000000000000000000000000000000000000000008152600401610ed890611950565b60405180910390fd5b600073ffffffffffffffffffffffffffffffffffffffff168173ffffffffffffffffffffffffffffffffffffffff161415610f51576040517f08c379a0000000000000000000000000000000000000000000000000000000008152600401610f4890611910565b60405180910390fd5b610f5a816111a0565b50565b600b8181548110610f6d57600080fd5b906000526020600020016000915090505481565b60018181548110610f9157600080fd5b906000526020600020016000915090505481565b60045481565b600033905090565b80600b9080519060200190610fc99291906112b1565b507f94de2ff682819969468ba0a79b06b01178ae993361a4f9b58eda41aa5eebe372604051610ff790611930565b60405180910390a15050565b61100b610fab565b73ffffffffffffffffffffffffffffffffffffffff16611029610a68565b73ffffffffffffffffffffffffffffffffffffffff161461107f576040517f08c379a000000000000000000000000000000000000000000000000000000000815260040161107690611950565b60405180910390fd5b600060028190555060006003819055506000600481905550600560009054906101000a900473ffffffffffffffffffffffffffffffffffffffff1673ffffffffffffffffffffffffffffffffffffffff16635d3b1d30600954600660149054906101000a900467ffffffffffffffff16600a60049054906101000a900461ffff16600a60009054906101000a900463ffffffff16600a60069054906101000a900463ffffffff166040518663ffffffff1660e01b81526004016111469594939291906118bd565b602060405180830381600087803b15801561116057600080fd5b505af1158015611174573d6000803e3d6000fd5b505050506040513d601f19601f820116820180604052508101906111989190611554565b600c81905550565b60008060009054906101000a900473ffffffffffffffffffffffffffffffffffffffff169050816000806101000a81548173ffffffffffffffffffffffffffffffffffffffff021916908373ffffffffffffffffffffffffffffffffffffffff1602179055508173ffffffffffffffffffffffffffffffffffffffff168173ffffffffffffffffffffffffffffffffffffffff167f8be0079c531659141344cd1fd0a4f28419497f9722a3daafe3b4186f6b6457e060405160405180910390a35050565b8280548282559060005260206000209081019282156112a0579160200282015b8281111561129f578235825591602001919060010190611284565b5b5090506112ad91906112fe565b5090565b8280548282559060005260206000209081019282156112ed579160200282015b828111156112ec5782518255916020019190600101906112d1565b5b5090506112fa919061131b565b5090565b5b808211156113175760008160009055506001016112ff565b5090565b5b8082111561133457600081600090555060010161131c565b5090565b600061134b611346846119f4565b6119cf565b9050808382526020820190508285602086028201111561136e5761136d611cef565b5b60005b8581101561139e57816113848882611456565b845260208401935060208301925050600181019050611371565b5050509392505050565b6000813590506113b781611db0565b92915050565b60008083601f8401126113d3576113d2611cea565b5b8235905067ffffffffffffffff8111156113f0576113ef611ce5565b5b60208301915083602082028301111561140c5761140b611cef565b5b9250929050565b600082601f83011261142857611427611cea565b5b8135611438848260208601611338565b91505092915050565b60008151905061145081611dc7565b92915050565b60008135905061146581611dde565b92915050565b60008151905061147a81611dde565b92915050565b60006020828403121561149657611495611cf9565b5b60006114a4848285016113a8565b91505092915050565b600080602083850312156114c4576114c3611cf9565b5b600083013567ffffffffffffffff8111156114e2576114e1611cf4565b5b6114ee858286016113bd565b92509250509250929050565b6000602082840312156115105761150f611cf9565b5b600061151e84828501611441565b91505092915050565b60006020828403121561153d5761153c611cf9565b5b600061154b84828501611456565b91505092915050565b60006020828403121561156a57611569611cf9565b5b60006115788482850161146b565b91505092915050565b6000806040838503121561159857611597611cf9565b5b60006115a685828601611456565b92505060206115b7858286016113a8565b9150509250929050565b600080604083850312156115d8576115d7611cf9565b5b60006115e685828601611456565b925050602083013567ffffffffffffffff81111561160757611606611cf4565b5b61161385828601611413565b9150509250929050565b600061162983836116a2565b60208301905092915050565b61163e81611b10565b82525050565b600061164f82611a30565b6116598185611a53565b935061166483611a20565b8060005b8381101561169557815161167c888261161d565b975061168783611a46565b925050600181019050611668565b5085935050505092915050565b6116ab81611b2e565b82525050565b6116ba81611b2e565b82525050565b60006116cb82611a3b565b6116d58185611a64565b93506116e5818560208601611b94565b6116ee81611cfe565b840191505092915050565b6000611706602683611a75565b915061171182611d0f565b604082019050919050565b6000611729600983611a75565b915061173482611d5e565b602082019050919050565b600061174c602083611a75565b915061175782611d87565b602082019050919050565b61176b81611b38565b82525050565b61177a81611b66565b82525050565b61178981611b70565b82525050565b61179881611b80565b82525050565b60006020820190506117b36000830184611635565b92915050565b60006040820190506117ce6000830185611635565b6117db6020830184611635565b9392505050565b60006040820190506117f76000830185611635565b6118046020830184611771565b9392505050565b60006060820190506118206000830186611635565b61182d6020830185611771565b818103604083015261183f81846116c0565b9050949350505050565b600060208201905081810360008301526118638184611644565b905092915050565b600060208201905061188060008301846116b1565b92915050565b600060608201905061189b60008301866116b1565b6118a860208301856116b1565b6118b560408301846116b1565b949350505050565b600060a0820190506118d260008301886116b1565b6118df602083018761178f565b6118ec6040830186611762565b6118f96060830185611780565b6119066080830184611780565b9695505050505050565b60006020820190508181036000830152611929816116f9565b9050919050565b600060208201905081810360008301526119498161171c565b9050919050565b600060208201905081810360008301526119698161173f565b9050919050565b60006020820190506119856000830184611771565b92915050565b60006020820190506119a0600083018461178f565b92915050565b60006040820190506119bb600083018561178f565b6119c86020830184611635565b9392505050565b60006119d96119ea565b90506119e58282611bc7565b919050565b6000604051905090565b600067ffffffffffffffff821115611a0f57611a0e611cb6565b5b602082029050602081019050919050565b6000819050602082019050919050565b600081519050919050565b600081519050919050565b6000602082019050919050565b600082825260208201905092915050565b600082825260208201905092915050565b600082825260208201905092915050565b6000611a9182611b66565b9150611a9c83611b66565b9250827fffffffffffffffffffffffffffffffffffffffffffffffffffffffffffffffff03821115611ad157611ad0611c29565b5b828201905092915050565b6000611ae782611b66565b9150611af283611b66565b925082821015611b0557611b04611c29565b5b828203905092915050565b6000611b1b82611b46565b9050919050565b60008115159050919050565b6000819050919050565b600061ffff82169050919050565b600073ffffffffffffffffffffffffffffffffffffffff82169050919050565b6000819050919050565b600063ffffffff82169050919050565b600067ffffffffffffffff82169050919050565b60005b83811015611bb2578082015181840152602081019050611b97565b83811115611bc1576000848401525b50505050565b611bd082611cfe565b810181811067ffffffffffffffff82111715611bef57611bee611cb6565b5b80604052505050565b6000611c0382611b66565b9150611c0e83611b66565b925082611c1e57611c1d611c58565b5b828206905092915050565b7f4e487b7100000000000000000000000000000000000000000000000000000000600052601160045260246000fd5b7f4e487b7100000000000000000000000000000000000000000000000000000000600052601260045260246000fd5b7f4e487b7100000000000000000000000000000000000000000000000000000000600052603260045260246000fd5b7f4e487b7100000000000000000000000000000000000000000000000000000000600052604160045260246000fd5b600080fd5b600080fd5b600080fd5b600080fd5b600080fd5b6000601f19601f8301169050919050565b7f4f776e61626c653a206e6577206f776e657220697320746865207a65726f206160008201527f6464726573730000000000000000000000000000000000000000000000000000602082015250565b7f636f6d706c657465640000000000000000000000000000000000000000000000600082015250565b7f4f776e61626c653a2063616c6c6572206973206e6f7420746865206f776e6572600082015250565b611db981611b10565b8114611dc457600080fd5b50565b611dd081611b22565b8114611ddb57600080fd5b50565b611de781611b66565b8114611df257600080fd5b5056fea26469706673582212208d69f1a9a9df80d7f2973d6f9558ba3d0c6117f672c6261dc00eece132c9244a64736f6c63430008070033",
  "linkReferences": {},
  "deployedLinkReferences": {}
}